:1000000045C0000060C000005EC000005CC0000091
:100010005AC0000058C0000056C0000054C0000084
:1000200052C0000050C000004EC000004CC0000094
:100030004AC0000048C0000046C0000044C00000A4
:1000400042C0000040C000003EC000003CC00000B4
:100050003AC0000038C0000036C0000034C00000C4
:1000600032C0000030C000002EC000002CC00000D4
:100070002AC0000028C0000026C0000024C00000E4
:1000800022C0000020C000001EC0000011241FBEBE
:10009000CFEFD0E1DEBFCDBF11E0A0E0B1E0EEE5F3
:1000A000FFE000E00BBF02C007900D92A231B10744
:1000B000D9F721E0A2E1B1E001C01D92AF3AB20749
:1000C000E1F78AD14AC79CCF909174009923E4F755
:1000D00090917100987F981711F081E0089580E069
:1000E0000895E4E7F0E08081846A808388E0ECCFC3
:1000F000089584E98093740008958093730084E8E0
:100100008093740088E1E0CF08958160809373004C
:1001100084E88093740080E4D7CF089580937300BF
:1001200084E88093740088E2CFCF089584EC8093B4
:100130007400809174008823E4F788E5C5DF80911E
:100140007300089585B3846085BB86E69EE00197C1
:10015000F1F7000085B38B7F85BB86E69EE00197B3
:10016000F1F70000089595B3916095BB88BBEADF75
:100170008CEC9CE10197F1F700C00000089595B365
:100180009E7F95BB88BBDEDF8CEC9CE10197F1F78D
:1001900000C0000008950F931F93CF938C01C0E01F
:1001A00002C0E1DFCF5FF801EC0FF11D808181110A
:1001B000F8CFCF911F910F9108956F70982F917084
:1001C00080FF04C0913021F080E003C080E801C0CE
:1001D00080EC860FD4CF089581E0D1DF8CEC9CE1D8
:1001E0000197F1F700C0000008952FEF8FE392E030
:1001F000215080409040E1F700C000008FEF87BBA6
:1002000018BA84B3876084BB85B38D7F85BB88E3D0
:10021000B6DF8CE0B4DFE0DF86E0B1CF0895CF93A6
:10022000DF9300D000D0CDB7DEB7FCD08093AE0115
:10023000E0914001F0914101E05DFE4F8083EED0FE
:1002400080914001909141010196909341018093EA
:10025000400129E939E581E0215030408040E1F753
:100260000000E0914001F0914101E15DFE4F80818D
:10027000803409F03BC060E071E080E391E060D33E
:100280001DC0E0913E01F0913F01EE0FFF1F21E004
:1002900030E02C0F3D1FE20FF31F9183808362E05B
:1002A00071E080E090E04CD320913E0130913F011D
:1002B0002F5F3F4F30933F0120933E01009709F796
:1002C00089819A8120D390933D0180933C018B8159
:1002D0009C8119D390933B0180933A011092410184
:1002E0001092400110923F0110923E018091AE01A8
:1002F000803409F09ACF0F900F900F900F90DF91FC
:10030000CF910895CF93DF936091420170914301A3
:100310008091440190914501D4D17F936F9384E003
:1003200091E09F938F938EE191E09F938F933AD3C7
:100330006091460170914701809148019091490177
:10034000C0D17F936F938BE091E09F938F9384E173
:1003500091E09F938F9326D33FDF60E080E02DDF15
:1003600080913D018F9380913C018F93C8E0D1E053
:10037000DF93CF938CE291E09F938F9313D38CE222
:1003800091E009DF68E080E018DF80913B018F9306
:1003900080913A018F93DF93CF9388E291E09F930E
:1003A0008F9300D388E291E0F6DE60E081E005DF24
:1003B0008EE191E0F0DE68E081E0FFDE84E191E033
:1003C000EADE8DB79EB748960FB6F8949EBF0FBE73
:1003D0008DBFDF91CF9108952CD007DFB9D0609306
:1003E0004201709343018093440190934501DAD018
:1003F00060934601709347018093480190934901AF
:100400000EDF8AE00BD07EDF2FEF8FEF9CE22150D2
:1004100080409040E1F700C00000E0CF5D9BFECF40
:100420008CB9089580919B008823E4F780919C000B
:1004300008952EEF22B998E19AB98FE589B921BBC9
:1004400090939A008093990008958F929F92AF9213
:10045000BF92CF92DF92EF92FF92A0E0B0E0BA2F6E
:10046000A92F982F8827862B20E030E00F2EC12C53
:10047000F0E8DF2EF8E9EF2EF12CF02D19C047E15E
:1004800050E0421B530B4C015D0104C0B694A7948D
:10049000979487944A95D2F780FE04C08C259D25B9
:1004A000AE25BF25F694E794D794C7942F5F3F4FAE
:1004B0002031310524F3FF90EF90DF90CF90BF9073
:1004C000AF909F908F9008951F93CF93DF93C82F85
:1004D00008DE80E890E011DE8C2F20DE26E02A95F1
:1004E000F1F700C006DEC0E010C087EA91E6019790
:1004F000F1F700C00000F5DD80E890E006DE88231B
:1005000031F0813009F4F5DDCF5FC43670F3C436C5
:10051000B1F00CDEC82F0ADED82F08DE182FE9DD77
:100520008C2F90E0982F88279C012D2BE901612FBB
:10053000CE018BDF811106C0CE018C7F05C086EE17
:1005400093E002C087EE93E0DF91CF911F91089571
:1005500085EFBADFBC01865E9340029740F480E0ED
:1005600090E0E0D0562F472F382F292F16C080E07B
:1005700090E0D8D020E030E040E857E361D120E0BF
:1005800030E04AEF52E45CD120E030E040EC50E44F
:1005900033D0562F472F382F292F652F742F832FB5
:1005A000922F089583EF90DFBC01865E93400297FF
:1005B00040F480E090E0B6D0562F472F382F292FF7
:1005C00016C080E090E0AED020E030E040E857E395
:1005D00037D122E538EB4FE253E432D126E636E656
:1005E0004BE352E409D0562F472F382F292F652F80
:1005F000742F832F922F08955058BB27AA270ED00F
:10060000E5C0D6D030F0DBD020F031F49F3F11F4BC
:100610001EF4CBC00EF4E095E7FBC1C0E92FE7D094
:1006200080F3BA17620773078407950718F071F40F
:100630009EF5FFC00EF4E0950B2EBA2FA02D0B01F6
:10064000B90190010C01CA01A0011124FF27591B17
:1006500099F0593F50F4503E68F11A16F040A22F1D
:10066000232F342F4427585FF3CF4695379527958E
:10067000A795F0405395C9F77EF41F16BA0B620B8D
:10068000730B840BBAF09150A1F0FF0FBB1F661FD4
:10069000771F881FC2F70EC0BA0F621F731F841F17
:1006A00048F4879577956795B795F7959E3F08F03D
:1006B000B3CF9395880F08F09927EE0F97958795FC
:1006C000089504D06894B111B5C0089598D088F009
:1006D0009F5790F0B92F9927B751A0F0D1F0660F2E
:1006E000771F881F991F1AF0BA95C9F712C0B13049
:1006F00081F09FD0B1E008959CC0672F782F8827A4
:10070000B85F39F0B93FCCF3869577956795B39587
:10071000D9F73EF490958095709561957F4F8F4FF6
:100720009F4F0895E89409C097FB3EF490958095FB
:10073000709561957F4F8F4F9F4F9923A9F0F92FA7
:1007400096E9BB279395F695879577956795B79525
:10075000F111F8CFFAF4BB0F11F460FF1BC06F5F0B
:100760007F4F8F4F9F4F16C0882311F096E911C01D
:10077000772321F09EE8872F762F05C0662371F03E
:1007800096E8862F70E060E02AF09A95660F771F52
:10079000881FDAF7880F9695879597F9089597F946
:1007A0009F6780E870E060E008959FEF80EC089517
:1007B00000240A9416161706180609060895002440
:1007C0000A9412161306140605060895092E0394BA
:1007D000000C11F4882352F0BB0F40F4BF2B11F42E
:1007E00060FF04C06F5F7F4F8F4F9F4F089557FD8D
:1007F0009058440F551F59F05F3F71F04795880F8F
:1008000097FB991F61F09F3F79F087950895121625
:1008100013061406551FF2CF4695F1DF08C01616D1
:1008200017061806991FF1CF869571056105089482
:100830000895E894BB2766277727CB0197F9089599
:100840000BD0C4CFB5DF28F0BADF18F0952309F03C
:10085000A6CFABCF1124EECFCADFA0F3959FD1F383
:10086000950F50E0551F629FF001729FBB27F00D5E
:10087000B11D639FAA27F00DB11DAA1F649F6627B3
:10088000B00DA11D661F829F2227B00DA11D621F02
:10089000739FB00DA11D621F839FA00D611D221FBC
:1008A000749F3327A00D611D231F849F600D211DA0
:1008B000822F762F6A2F11249F5750408AF0E1F043
:1008C00088234AF0EE0FFF1FBB1F661F771F881F8C
:1008D00091505040A9F79E3F510570F060CFAACFCC
:1008E0005F3FECF3983EDCF3869577956795B79577
:1008F000F795E7959F5FC1F7FE2B880F911D9695A1
:10090000879597F90895FC0188279927E894219104
:100910002032E9F3293010F02E30C8F32B3239F0B1
:100920002D3231F4689403C035D0820F911D21918E
:1009300020532A30C8F31EF4909581959F4F089557
:1009400042E151E000C0FA01A191B081009719F491
:100950001097E1F0CD01DC01CD010D90002011F4E4
:10096000C00113C0FB012191222319F02015D9F7F2
:10097000F3CFFB012191201519F41E92119606C0A8
:100980002223C1F70D900020A1F7D001FA01A19315
:10099000B08308957AE0979F902D879F802D910DC9
:1009A000112408950F931F93CF93DF93CDB7DEB734
:1009B0002E970FB6F894DEBF0FBECDBF0D891E89EE
:1009C00086E08C831A8309838FEF9FE79E838D8354
:1009D000AE01475E5F4F6F89788DCE01019610D0D2
:1009E000EF81F885E00FF11F10822E960FB6F89474
:1009F000DEBF0FBECDBFDF91CF911F910F91089544
:100A00002F923F924F925F926F927F928F929F921E
:100A1000AF92BF92CF92DF92EF92FF920F931F930C
:100A2000CF93DF93CDB7DEB72B970FB6F894DEBF29
:100A30000FBECDBF6C017B018A01FC0117821682BB
:100A4000838181FFBFC1CE0101963C01F6019381F4
:100A5000F70193FD859193FF81917F01882309F42C
:100A6000ADC1853239F493FD859193FF81917F016A
:100A7000853221F4B60190E0D6D1E8CF912C212C1B
:100A8000312CFFE1F315D8F08B3279F038F4803255
:100A900079F08332A1F4232D20611DC08D3261F0E5
:100AA000803369F4232D216016C0832D8260382E97
:100AB000E32DE4603E2E2AC0F32DF8601DC037FC04
:100AC0002DC020ED280F2A3040F08E32B9F436FCCC
:100AD00075C1232D2064322E19C036FE06C08AE06F
:100AE000989E200D1124922E11C0EAE02E9E200D1A
:100AF0001124222EF32DF0623F2E08C08C3621F4F3
:100B0000832D8068382E02C0883641F4F70193FDAA
:100B1000859193FF81917F018111B3CF982F9F7DA4
:100B20009554933028F40C5F1F4F9FE399830DC0B9
:100B3000833631F0833771F0833509F055C020C01A
:100B4000F801808189830E5F1F4F88248394912C44
:100B5000530112C02801F2E04F0E511CF801A08091
:100B6000B18036FE03C0692D70E002C06FEF7FEFE9
:100B7000C5014ED14C018201F32DFF773F2E15C0E8
:100B8000280122E0420E511CF801A080B18036FEFF
:100B900003C0692D70E002C06FEF7FEFC5012DD15A
:100BA0004C01F32DF0683F2E820133FC19C0822DD9
:100BB00090E088169906A0F4B60180E290E033D167
:100BC0002A94F5CFF50137FC859137FE81915F01BD
:100BD000B60190E028D121102A9421E0821A9108D0
:100BE0008114910479F7E1C0843611F0893639F522
:100BF000F80137FE07C060817181828193810C5FAB
:100C00001F4F08C060817181072E000C880B990B63
:100C10000E5F1F4FF32DFF763F2E97FF09C0909573
:100C20008095709561957F4F8F4F9F4FF0683F2E55
:100C30002AE030E0A30133D1882E861844C08537DE
:100C400031F4232D2F7EB22E2AE030E025C0932DE3
:100C5000997FB92E8F36C1F018F4883579F0AEC07F
:100C6000803719F0883721F0A9C0E92FE061BE2E46
:100C7000B4FE0DC0FB2DF460BF2E09C034FE0AC0C7
:100C8000292F2660B22E06C028E030E005C020E102
:100C900030E002C020E132E0F801B7FE07C0608119
:100CA0007181828193810C5F1F4F06C060817181C9
:100CB00080E090E00E5F1F4FA301F1D0882E8618D0
:100CC000FB2DFF773F2E36FE0DC0232D2E7FA22E4B
:100CD000891458F434FE0BC032FC09C0832D8E7E7B
:100CE000A82E05C0B82CA32C03C0B82C01C0B92C69
:100CF000A4FE0FC0FE01E80DF11D8081803321F4B8
:100D00009A2D997EA92E09C0A2FE06C0B394B39471
:100D100004C08A2D867809F0B394A3FC10C0A0FE0D
:100D200006C0B21480F4280C922C9B180DC0B2148B
:100D300058F4B60180E290E076D0B394F8CFB214C4
:100D400018F42B1802C0982C212CA4FE0FC0B60159
:100D500080E390E068D0A2FE16C0A1FC03C088E743
:100D600090E002C088E590E0B6010CC08A2D86783C
:100D700051F0A1FE02C08BE201C080E2A7FC8DE22F
:100D8000B60190E050D0891430F4B60180E390E0D1
:100D90004AD09A94F8CF8A94F301E80DF11D80812E
:100DA000B60190E040D08110F6CF222009F44ECE5B
:100DB000B60180E290E037D02A94F7CFF601868121
:100DC000978102C08FEF9FEF2B960FB6F894DEBF8E
:100DD0000FBECDBFDF91CF911F910F91FF90EF908C
:100DE000DF90CF90BF90AF909F908F907F906F904B
:100DF0005F904F903F902F900895FC0105906150B7
:100E000070400110D8F7809590958E0F9F1F089520
:100E1000FC016150704001900110D8F780959095C9
:100E20008E0F9F1F08950F931F93CF93DF93FB01A6
:100E3000238121FD03C08FEF9FEF2CC022FF16C03E
:100E400046815781248135814217530744F4A0819C
:100E5000B1819D012F5F3F4F318320838C93268189
:100E600037812F5F3F4F3783268314C08B01EC01FE
:100E7000FB010084F185E02D0995892BE1F6D8016D
:100E800016968D919C911797019617969C938E9329
:100E90001697CE01DF91CF911F910F910895FA011E
:100EA000AA27283051F1203181F1E8946F936E7FA9
:100EB0006E5F7F4F8F4F9F4FAF4FB1E03ED0B4E09A
:100EC0003CD0670F781F891F9A1FA11D680F791FDB
:100ED0008A1F911DA11D6A0F711D811D911DA11DEC
:100EE00020D009F468943F912AE0269F11243019FC
:100EF000305D3193DEF6CF010895462F4770405D97
:100F00004193B3E00FD0C9F7F6CF462F4F70405D45
:100F10004A3318F0495D31FD4052419302D0A9F7A0
:100F2000EACFB4E0A6959795879577956795BA959A
:100F3000C9F700976105710508959B01AC010A2E60
:100F400006945795479537952795BA95C9F7620F37
:0E0F5000731F841F951FA01D0895F894FFCFF6
:100F5E002300400068203A2025640074203A2025A2
:020F6E0064001D
:00000001FF
